{
  "_format": "hh-sol-artifact-1",
  "contractName": "WordleApp",
  "sourceName": "contracts/WordleApp.sol",
  "abi": [
    {
      "inputs": [
        {
          "internalType": "address",
          "name": "_verifier",
          "type": "address"
        },
        {
          "internalType": "address",
          "name": "_owner",
          "type": "address"
        }
      ],
      "stateMutability": "nonpayable",
      "type": "constructor"
    },
    {
      "inputs": [
        {
          "internalType": "address",
          "name": "owner",
          "type": "address"
        }
      ],
      "name": "OwnableInvalidOwner",
      "type": "error"
    },
    {
      "inputs": [
        {
          "internalType": "address",
          "name": "account",
          "type": "address"
        }
      ],
      "name": "OwnableUnauthorizedAccount",
      "type": "error"
    },
    {
      "anonymous": false,
      "inputs": [
        {
          "indexed": false,
          "internalType": "uint256",
          "name": "sessionId",
          "type": "uint256"
        },
        {
          "indexed": false,
          "internalType": "address",
          "name": "player",
          "type": "address"
        },
        {
          "indexed": false,
          "internalType": "bytes32",
          "name": "commitment",
          "type": "bytes32"
        }
      ],
      "name": "GameLost",
      "type": "event"
    },
    {
      "anonymous": false,
      "inputs": [
        {
          "indexed": false,
          "internalType": "uint256",
          "name": "sessionId",
          "type": "uint256"
        },
        {
          "indexed": false,
          "internalType": "address",
          "name": "player",
          "type": "address"
        },
        {
          "indexed": false,
          "internalType": "bytes32",
          "name": "commitment",
          "type": "bytes32"
        }
      ],
      "name": "GameWon",
      "type": "event"
    },
    {
      "anonymous": false,
      "inputs": [
        {
          "indexed": true,
          "internalType": "address",
          "name": "previousOwner",
          "type": "address"
        },
        {
          "indexed": true,
          "internalType": "address",
          "name": "newOwner",
          "type": "address"
        }
      ],
      "name": "OwnershipTransferred",
      "type": "event"
    },
    {
      "anonymous": false,
      "inputs": [
        {
          "indexed": false,
          "internalType": "uint256",
          "name": "sessionId",
          "type": "uint256"
        },
        {
          "indexed": false,
          "internalType": "address",
          "name": "player",
          "type": "address"
        },
        {
          "indexed": false,
          "internalType": "bytes32",
          "name": "commitment",
          "type": "bytes32"
        }
      ],
      "name": "SessionStarted",
      "type": "event"
    },
    {
      "anonymous": false,
      "inputs": [
        {
          "indexed": false,
          "internalType": "uint256",
          "name": "sessionId",
          "type": "uint256"
        },
        {
          "indexed": false,
          "internalType": "uint256[6]",
          "name": "feedback",
          "type": "uint256[6]"
        },
        {
          "indexed": false,
          "internalType": "uint256[6]",
          "name": "guess",
          "type": "uint256[6]"
        }
      ],
      "name": "SessionUpdated",
      "type": "event"
    },
    {
      "anonymous": false,
      "inputs": [
        {
          "indexed": false,
          "internalType": "uint256",
          "name": "sessionId",
          "type": "uint256"
        },
        {
          "indexed": false,
          "internalType": "uint256[6]",
          "name": "guess",
          "type": "uint256[6]"
        },
        {
          "indexed": false,
          "internalType": "uint256[6]",
          "name": "feedback",
          "type": "uint256[6]"
        },
        {
          "indexed": false,
          "internalType": "bytes32",
          "name": "commitment",
          "type": "bytes32"
        }
      ],
      "name": "VerifyGuess",
      "type": "event"
    },
    {
      "anonymous": false,
      "inputs": [
        {
          "indexed": false,
          "internalType": "uint256",
          "name": "sessionId",
          "type": "uint256"
        },
        {
          "indexed": false,
          "internalType": "uint256[6]",
          "name": "word",
          "type": "uint256[6]"
        },
        {
          "indexed": false,
          "internalType": "uint256",
          "name": "salt",
          "type": "uint256"
        }
      ],
      "name": "WordReveal",
      "type": "event"
    },
    {
      "inputs": [
        {
          "internalType": "uint256",
          "name": "sessionId",
          "type": "uint256"
        }
      ],
      "name": "checkIfGameOver",
      "outputs": [
        {
          "internalType": "bool",
          "name": "",
          "type": "bool"
        }
      ],
      "stateMutability": "view",
      "type": "function"
    },
    {
      "inputs": [],
      "name": "owner",
      "outputs": [
        {
          "internalType": "address",
          "name": "",
          "type": "address"
        }
      ],
      "stateMutability": "view",
      "type": "function"
    },
    {
      "inputs": [],
      "name": "renounceOwnership",
      "outputs": [],
      "stateMutability": "nonpayable",
      "type": "function"
    },
    {
      "inputs": [
        {
          "internalType": "uint256",
          "name": "sessionId",
          "type": "uint256"
        },
        {
          "internalType": "uint256[6]",
          "name": "word",
          "type": "uint256[6]"
        },
        {
          "internalType": "uint256",
          "name": "salt",
          "type": "uint256"
        }
      ],
      "name": "revealWord",
      "outputs": [],
      "stateMutability": "nonpayable",
      "type": "function"
    },
    {
      "inputs": [
        {
          "internalType": "uint256",
          "name": "",
          "type": "uint256"
        }
      ],
      "name": "sessions",
      "outputs": [
        {
          "internalType": "uint256",
          "name": "sessionId",
          "type": "uint256"
        },
        {
          "internalType": "address",
          "name": "player",
          "type": "address"
        },
        {
          "internalType": "bytes32",
          "name": "commitment",
          "type": "bytes32"
        },
        {
          "internalType": "uint8",
          "name": "attempts",
          "type": "uint8"
        },
        {
          "internalType": "uint256",
          "name": "salt",
          "type": "uint256"
        }
      ],
      "stateMutability": "view",
      "type": "function"
    },
    {
      "inputs": [
        {
          "internalType": "uint256",
          "name": "sessionId",
          "type": "uint256"
        },
        {
          "internalType": "address",
          "name": "player",
          "type": "address"
        },
        {
          "internalType": "bytes32",
          "name": "commitment",
          "type": "bytes32"
        }
      ],
      "name": "startSession",
      "outputs": [],
      "stateMutability": "nonpayable",
      "type": "function"
    },
    {
      "inputs": [
        {
          "internalType": "address",
          "name": "newOwner",
          "type": "address"
        }
      ],
      "name": "transferOwnership",
      "outputs": [],
      "stateMutability": "nonpayable",
      "type": "function"
    },
    {
      "inputs": [
        {
          "internalType": "uint256",
          "name": "sessionId",
          "type": "uint256"
        },
        {
          "internalType": "uint256[6]",
          "name": "feedback",
          "type": "uint256[6]"
        },
        {
          "internalType": "uint256[6]",
          "name": "guess",
          "type": "uint256[6]"
        }
      ],
      "name": "updateSession",
      "outputs": [],
      "stateMutability": "nonpayable",
      "type": "function"
    },
    {
      "inputs": [],
      "name": "verifier",
      "outputs": [
        {
          "internalType": "contract IVerifier",
          "name": "",
          "type": "address"
        }
      ],
      "stateMutability": "view",
      "type": "function"
    },
    {
      "inputs": [
        {
          "internalType": "uint256",
          "name": "sessionId",
          "type": "uint256"
        },
        {
          "internalType": "uint256[6]",
          "name": "guess",
          "type": "uint256[6]"
        },
        {
          "internalType": "uint256[6]",
          "name": "feedback",
          "type": "uint256[6]"
        },
        {
          "internalType": "bytes",
          "name": "proof",
          "type": "bytes"
        },
        {
          "internalType": "bytes32[]",
          "name": "publicInputs",
          "type": "bytes32[]"
        },
        {
          "internalType": "bytes32",
          "name": "commitment",
          "type": "bytes32"
        }
      ],
      "name": "verifyGuess",
      "outputs": [],
      "stateMutability": "nonpayable",
      "type": "function"
    }
  ],
  "bytecode": "0x60a060405234801561001057600080fd5b5060405161118338038061118383398101604081905261002f916100e6565b806001600160a01b03811661005e57604051631e4fbdf760e01b81526000600482015260240160405180910390fd5b6100678161007a565b50506001600160a01b0316608052610119565b600080546001600160a01b038381166001600160a01b0319831681178455604051919092169283917f8be0079c531659141344cd1fd0a4f28419497f9722a3daafe3b4186f6b6457e09190a35050565b80516001600160a01b03811681146100e157600080fd5b919050565b600080604083850312156100f957600080fd5b610102836100ca565b9150610110602084016100ca565b90509250929050565b60805161104961013a6000396000818160a8015261025d01526110496000f3fe608060405234801561001057600080fd5b506004361061009e5760003560e01c8063b852be6211610066578063b852be6214610194578063cc8f4696146101b7578063f2fde38b146101ca578063fa9abd9b146101dd578063fdc5471a146101f057600080fd5b80632b7ac3f3146100a35780633b144a31146100e7578063715018a6146100fc57806383c4b7a3146101045780638da5cb5b14610183575b600080fd5b6100ca7f000000000000000000000000000000000000000000000000000000000000000081565b6040516001600160a01b0390911681526020015b60405180910390f35b6100fa6100f5366004610c72565b610203565b005b6100fa61035e565b610150610112366004610d51565b600160208190526000918252604090912080549181015460028201546003830154600c909301546001600160a01b0390921692909160ff9091169085565b604080519586526001600160a01b0390941660208601529284019190915260ff166060830152608082015260a0016100de565b6000546001600160a01b03166100ca565b6101a76101a2366004610d51565b610372565b60405190151581526020016100de565b6100fa6101c5366004610d6a565b61043f565b6100fa6101d8366004610dc5565b610590565b6100fa6101eb366004610de7565b6105ce565b6100fa6101fe366004610e1f565b6107a7565b6000888152600160208190526040909120908101546001600160a01b03166102465760405162461bcd60e51b815260040161023d90610e55565b60405180910390fd5b604051633a94343960e21b81526001600160a01b037f0000000000000000000000000000000000000000000000000000000000000000169063ea50d0e490610298908990899089908990600401610e83565b602060405180830381865afa1580156102b5573d6000803e3d6000fd5b505050506040513d601f19601f820116820180604052508101906102d99190610ee7565b6103165760405162461bcd60e51b815260206004820152600e60248201526d496e76616c69642067756573732160901b604482015260640161023d565b7fb42d40b839f6ddc44a1a3ee58d850d4ab6acbab8d76f9c2c3d712f2855a023468989898560405161034b9493929190610f32565b60405180910390a1505050505050505050565b6103666109f5565b6103706000610a22565b565b60008181526001602081905260408220908101546001600160a01b03166103ab5760405162461bcd60e51b815260040161023d90610e55565b600381015460009061041f9060048401906103cb9060019060ff16610f7a565b60ff16815481106103de576103de610f99565b600091825260209091206040805160c0810191829052926006908102909201919082845b815481526020019060010190808311610402575050505050610a72565b905080801561043757506003820154600660ff909116105b949350505050565b6104476109f5565b6000838152600160208190526040909120908101546001600160a01b03166104815760405162461bcd60e51b815260040161023d90610e55565b6003810154600660ff909116106104c75760405162461bcd60e51b815260206004820152600a60248201526947616d65206f7665722160b01b604482015260640161023d565b60038101805460ff169060006104dc83610faf565b825460ff9182166101009390930a92830291909202199091161790555060048101805460018101825560009182526020909120610523916006908102909101908590610ab7565b506005810180546001810182556000918252602090912061054e916006908102909101908490610ab7565b507fd0e05d721b6f1f345807bca9ee7bed9bcf003dbc048cad975f30faa54b696da484848460405161058293929190610fce565b60405180910390a150505050565b6105986109f5565b6001600160a01b0381166105c257604051631e4fbdf760e01b81526000600482015260240161023d565b6105cb81610a22565b50565b6105d66109f5565b6000838152600160208190526040822060038101549092916106039160048501916103cb9160ff16610f7a565b60018301549091506001600160a01b03166106305760405162461bcd60e51b815260040161023d90610e55565b6003820154600660ff9091161015806106465750805b6106875760405162461bcd60e51b815260206004820152601260248201527147616d65206e6f74206f766572207965742160701b604482015260640161023d565b6106976006808401908690610ab7565b50600c82018390558080156106b557506003820154600660ff909116105b156107035760028201546040805187815233602082015280820192909252517f2ff8e24946f44647e89343fe32c549601a3c30f21a938a60bd421b8b57a26be49181900360600190a1610765565b6003820154600660ff9091161080159061071b575080155b156107655760028201546040805187815233602082015280820192909252517f5d679cc289d48b5425988e31aef3cbcde99d06349620b17d5a884eb1a7d907f99181900360600190a15b7faf5f5f77e941689626533f5a8e80a5dc557e18cedaa062bcc7443b200735b47585858560405161079893929190610ff0565b60405180910390a15050505050565b6107af6109f5565b600083815260016020819052604090912001546001600160a01b0316156108185760405162461bcd60e51b815260206004820152601860248201527f53657373696f6e20616c72656164792073746172746564210000000000000000604482015260640161023d565b60408051610100810182528481526001600160a01b0384166020808301919091528183018490526000606083018190528351818152918201909352608082019083610879565b610866610af5565b81526020019060019003908161085e5790505b50815260200160006040519080825280602002602001820160405280156108ba57816020015b6108a7610af5565b81526020019060019003908161089f5790505b5081526040805160c081018252600080825260208083018290528284018290526060808401839052608080850184905260a0850184905282870194909452948401829052898252600180825291849020865181558682015192810180546001600160a01b0319166001600160a01b03909416939093179092559285015160028201559284015160038401805460ff191660ff9092169190911790558301518051939450849361096f9260048501920190610b13565b5060a0820151805161098b916005840191602090910190610b13565b5060c08201516109a19060068084019190610ab7565b5060e09190910151600c90910155604080518581526001600160a01b03851660208201529081018390527ff54ab3d1fa6edf998e7f57376cb4baba7da29bd227d2e2e97e56265cf6aab41690606001610582565b6000546001600160a01b031633146103705760405163118cdaa760e01b815233600482015260240161023d565b600080546001600160a01b038381166001600160a01b0319831681178455604051919092169283917f8be0079c531659141344cd1fd0a4f28419497f9722a3daafe3b4186f6b6457e09190a35050565b6000805b6006811015610aae57828160068110610a9157610a91610f99565b6020020151600214610aa65750600092915050565b600101610a76565b50600192915050565b8260068101928215610ae5579160200282015b82811115610ae5578251825591602001919060010190610aca565b50610af1929150610b69565b5090565b6040518060c001604052806006906020820280368337509192915050565b828054828255906000526020600020906006028101928215610b5d579160200282015b82811115610b5d578251610b4d9083906006610ab7565b5091602001919060060190610b36565b50610af1929150610b7e565b5b80821115610af15760008155600101610b6a565b80821115610af1576000610b928282610b9b565b50600601610b7e565b506105cb906006810190610b69565b600082601f830112610bbb57600080fd5b60405160c0810181811067ffffffffffffffff82111715610bec57634e487b7160e01b600052604160045260246000fd5b6040528060c0840185811115610c0157600080fd5b845b81811015610c1b578035835260209283019201610c03565b509195945050505050565b60008083601f840112610c3857600080fd5b50813567ffffffffffffffff811115610c5057600080fd5b6020830191508360208260051b8501011115610c6b57600080fd5b9250929050565b600080600080600080600080610200898b031215610c8f57600080fd5b88359750610ca08a60208b01610baa565b9650610caf8a60e08b01610baa565b95506101a089013567ffffffffffffffff811115610ccc57600080fd5b8901601f81018b13610cdd57600080fd5b803567ffffffffffffffff811115610cf457600080fd5b8b6020828401011115610d0657600080fd5b602091909101955093506101c089013567ffffffffffffffff811115610d2b57600080fd5b610d378b828c01610c26565b999c989b5096999598949794956101e00135949350505050565b600060208284031215610d6357600080fd5b5035919050565b60008060006101a08486031215610d8057600080fd5b83359250610d918560208601610baa565b9150610da08560e08601610baa565b90509250925092565b80356001600160a01b0381168114610dc057600080fd5b919050565b600060208284031215610dd757600080fd5b610de082610da9565b9392505050565b60008060006101008486031215610dfd57600080fd5b83359250610e0e8560208601610baa565b9295929450505060e0919091013590565b600080600060608486031215610e3457600080fd5b83359250610e4460208501610da9565b929592945050506040919091013590565b60208082526014908201527353657373696f6e206e6f7420737461727465642160601b604082015260600190565b6040815283604082015283856060830137600060608583018101829052601f19601f8701168301838103820160208501529081018490526001600160fb1b03841115610ece57600080fd5b8360051b80866080840137016080019695505050505050565b600060208284031215610ef957600080fd5b81518015158114610de057600080fd5b8060005b6006811015610f2c578151845260209384019390910190600101610f0d565b50505050565b8481526101c08101610f476020830186610f09565b610f5460e0830185610f09565b826101a083015295945050505050565b634e487b7160e01b600052601160045260246000fd5b60ff8281168282160390811115610f9357610f93610f64565b92915050565b634e487b7160e01b600052603260045260246000fd5b600060ff821660ff8103610fc557610fc5610f64565b60010192915050565b8381526101a08101610fe36020830185610f09565b61043760e0830184610f09565b83815261010081016110056020830185610f09565b8260e083015294935050505056fea2646970667358221220f94e2129d7c56095bca196ffa73d4bd4238c1b378171feb5f19171ed8d5ee87f64736f6c634300081c0033",
  "linkReferences": {},
  "deployedLinkReferences": {}
}