{
  "_format": "hh-sol-artifact-1",
  "contractName": "WordleApp",
  "sourceName": "contracts/WordleApp.sol",
  "abi": [
    {
      "inputs": [
        {
          "internalType": "address",
          "name": "_verifier",
          "type": "address"
        },
        {
          "internalType": "address",
          "name": "_owner",
          "type": "address"
        }
      ],
      "stateMutability": "nonpayable",
      "type": "constructor"
    },
    {
      "inputs": [
        {
          "internalType": "address",
          "name": "owner",
          "type": "address"
        }
      ],
      "name": "OwnableInvalidOwner",
      "type": "error"
    },
    {
      "inputs": [
        {
          "internalType": "address",
          "name": "account",
          "type": "address"
        }
      ],
      "name": "OwnableUnauthorizedAccount",
      "type": "error"
    },
    {
      "anonymous": false,
      "inputs": [
        {
          "indexed": false,
          "internalType": "uint256",
          "name": "sessionId",
          "type": "uint256"
        },
        {
          "indexed": false,
          "internalType": "address",
          "name": "player",
          "type": "address"
        },
        {
          "indexed": false,
          "internalType": "bytes32",
          "name": "commitment",
          "type": "bytes32"
        }
      ],
      "name": "GameLost",
      "type": "event"
    },
    {
      "anonymous": false,
      "inputs": [
        {
          "indexed": false,
          "internalType": "uint256",
          "name": "sessionId",
          "type": "uint256"
        },
        {
          "indexed": false,
          "internalType": "address",
          "name": "player",
          "type": "address"
        },
        {
          "indexed": false,
          "internalType": "bytes32",
          "name": "commitment",
          "type": "bytes32"
        }
      ],
      "name": "GameWon",
      "type": "event"
    },
    {
      "anonymous": false,
      "inputs": [
        {
          "indexed": true,
          "internalType": "address",
          "name": "previousOwner",
          "type": "address"
        },
        {
          "indexed": true,
          "internalType": "address",
          "name": "newOwner",
          "type": "address"
        }
      ],
      "name": "OwnershipTransferred",
      "type": "event"
    },
    {
      "anonymous": false,
      "inputs": [
        {
          "indexed": false,
          "internalType": "uint256",
          "name": "sessionId",
          "type": "uint256"
        },
        {
          "indexed": false,
          "internalType": "address",
          "name": "player",
          "type": "address"
        },
        {
          "indexed": false,
          "internalType": "bytes32",
          "name": "commitment",
          "type": "bytes32"
        }
      ],
      "name": "SessionStarted",
      "type": "event"
    },
    {
      "anonymous": false,
      "inputs": [
        {
          "indexed": false,
          "internalType": "uint256",
          "name": "sessionId",
          "type": "uint256"
        },
        {
          "indexed": false,
          "internalType": "uint256[6]",
          "name": "feedback",
          "type": "uint256[6]"
        },
        {
          "indexed": false,
          "internalType": "uint256[6]",
          "name": "guess",
          "type": "uint256[6]"
        }
      ],
      "name": "SessionUpdated",
      "type": "event"
    },
    {
      "anonymous": false,
      "inputs": [
        {
          "indexed": false,
          "internalType": "uint256",
          "name": "sessionId",
          "type": "uint256"
        },
        {
          "indexed": false,
          "internalType": "uint256[6]",
          "name": "guess",
          "type": "uint256[6]"
        },
        {
          "indexed": false,
          "internalType": "uint256[6]",
          "name": "feedback",
          "type": "uint256[6]"
        },
        {
          "indexed": false,
          "internalType": "bytes32",
          "name": "commitment",
          "type": "bytes32"
        }
      ],
      "name": "VerifyGuess",
      "type": "event"
    },
    {
      "anonymous": false,
      "inputs": [
        {
          "indexed": false,
          "internalType": "uint256",
          "name": "sessionId",
          "type": "uint256"
        },
        {
          "indexed": false,
          "internalType": "uint256[6]",
          "name": "word",
          "type": "uint256[6]"
        },
        {
          "indexed": false,
          "internalType": "uint256",
          "name": "salt",
          "type": "uint256"
        }
      ],
      "name": "WordReveal",
      "type": "event"
    },
    {
      "inputs": [
        {
          "internalType": "uint256",
          "name": "sessionId",
          "type": "uint256"
        }
      ],
      "name": "checkIfGameOver",
      "outputs": [
        {
          "internalType": "bool",
          "name": "",
          "type": "bool"
        }
      ],
      "stateMutability": "nonpayable",
      "type": "function"
    },
    {
      "inputs": [],
      "name": "owner",
      "outputs": [
        {
          "internalType": "address",
          "name": "",
          "type": "address"
        }
      ],
      "stateMutability": "view",
      "type": "function"
    },
    {
      "inputs": [],
      "name": "renounceOwnership",
      "outputs": [],
      "stateMutability": "nonpayable",
      "type": "function"
    },
    {
      "inputs": [
        {
          "internalType": "uint256",
          "name": "sessionId",
          "type": "uint256"
        },
        {
          "internalType": "uint256[6]",
          "name": "word",
          "type": "uint256[6]"
        },
        {
          "internalType": "uint256",
          "name": "salt",
          "type": "uint256"
        }
      ],
      "name": "revealWord",
      "outputs": [],
      "stateMutability": "nonpayable",
      "type": "function"
    },
    {
      "inputs": [
        {
          "internalType": "uint256",
          "name": "",
          "type": "uint256"
        }
      ],
      "name": "sessions",
      "outputs": [
        {
          "internalType": "uint256",
          "name": "sessionId",
          "type": "uint256"
        },
        {
          "internalType": "address",
          "name": "player",
          "type": "address"
        },
        {
          "internalType": "bytes32",
          "name": "commitment",
          "type": "bytes32"
        },
        {
          "internalType": "uint8",
          "name": "attempts",
          "type": "uint8"
        },
        {
          "internalType": "uint256",
          "name": "salt",
          "type": "uint256"
        }
      ],
      "stateMutability": "view",
      "type": "function"
    },
    {
      "inputs": [
        {
          "internalType": "uint256",
          "name": "sessionId",
          "type": "uint256"
        },
        {
          "internalType": "address",
          "name": "player",
          "type": "address"
        },
        {
          "internalType": "bytes32",
          "name": "commitment",
          "type": "bytes32"
        }
      ],
      "name": "startSession",
      "outputs": [],
      "stateMutability": "nonpayable",
      "type": "function"
    },
    {
      "inputs": [
        {
          "internalType": "address",
          "name": "newOwner",
          "type": "address"
        }
      ],
      "name": "transferOwnership",
      "outputs": [],
      "stateMutability": "nonpayable",
      "type": "function"
    },
    {
      "inputs": [
        {
          "internalType": "uint256",
          "name": "sessionId",
          "type": "uint256"
        },
        {
          "internalType": "uint256[6]",
          "name": "feedback",
          "type": "uint256[6]"
        },
        {
          "internalType": "uint256[6]",
          "name": "guess",
          "type": "uint256[6]"
        }
      ],
      "name": "updateSession",
      "outputs": [],
      "stateMutability": "nonpayable",
      "type": "function"
    },
    {
      "inputs": [],
      "name": "verifier",
      "outputs": [
        {
          "internalType": "contract IVerifier",
          "name": "",
          "type": "address"
        }
      ],
      "stateMutability": "view",
      "type": "function"
    },
    {
      "inputs": [
        {
          "internalType": "uint256",
          "name": "sessionId",
          "type": "uint256"
        },
        {
          "internalType": "uint256[6]",
          "name": "guess",
          "type": "uint256[6]"
        },
        {
          "internalType": "uint256[6]",
          "name": "feedback",
          "type": "uint256[6]"
        },
        {
          "internalType": "bytes",
          "name": "proof",
          "type": "bytes"
        },
        {
          "internalType": "bytes32[]",
          "name": "publicInputs",
          "type": "bytes32[]"
        },
        {
          "internalType": "bytes32",
          "name": "commitment",
          "type": "bytes32"
        }
      ],
      "name": "verifyGuess",
      "outputs": [],
      "stateMutability": "nonpayable",
      "type": "function"
    }
  ],
  "bytecode": "0x60a060405234801561001057600080fd5b5060405161111138038061111183398101604081905261002f916100e6565b806001600160a01b03811661005e57604051631e4fbdf760e01b81526000600482015260240160405180910390fd5b6100678161007a565b50506001600160a01b0316608052610119565b600080546001600160a01b038381166001600160a01b0319831681178455604051919092169283917f8be0079c531659141344cd1fd0a4f28419497f9722a3daafe3b4186f6b6457e09190a35050565b80516001600160a01b03811681146100e157600080fd5b919050565b600080604083850312156100f957600080fd5b610102836100ca565b9150610110602084016100ca565b90509250929050565b608051610fd761013a6000396000818160a8015261025d0152610fd76000f3fe608060405234801561001057600080fd5b506004361061009e5760003560e01c8063b852be6211610066578063b852be6214610194578063cc8f4696146101b7578063f2fde38b146101ca578063fa9abd9b146101dd578063fdc5471a146101f057600080fd5b80632b7ac3f3146100a35780633b144a31146100e7578063715018a6146100fc57806383c4b7a3146101045780638da5cb5b14610183575b600080fd5b6100ca7f000000000000000000000000000000000000000000000000000000000000000081565b6040516001600160a01b0390911681526020015b60405180910390f35b6100fa6100f5366004610c26565b610203565b005b6100fa61035e565b610150610112366004610d05565b600160208190526000918252604090912080549181015460028201546003830154600c909301546001600160a01b0390921692909160ff9091169085565b604080519586526001600160a01b0390941660208601529284019190915260ff166060830152608082015260a0016100de565b6000546001600160a01b03166100ca565b6101a76101a2366004610d05565b610372565b60405190151581526020016100de565b6100fa6101c5366004610d1e565b6104f6565b6100fa6101d8366004610d79565b610647565b6100fa6101eb366004610d94565b610685565b6100fa6101fe366004610dcc565b61075b565b6000888152600160208190526040909120908101546001600160a01b03166102465760405162461bcd60e51b815260040161023d90610e02565b60405180910390fd5b604051633a94343960e21b81526001600160a01b037f0000000000000000000000000000000000000000000000000000000000000000169063ea50d0e490610298908990899089908990600401610e30565b602060405180830381865afa1580156102b5573d6000803e3d6000fd5b505050506040513d601f19601f820116820180604052508101906102d99190610e94565b6103165760405162461bcd60e51b815260206004820152600e60248201526d496e76616c69642067756573732160901b604482015260640161023d565b7fb42d40b839f6ddc44a1a3ee58d850d4ab6acbab8d76f9c2c3d712f2855a023468989898560405161034b9493929190610edf565b60405180910390a1505050505050505050565b6103666109a9565b61037060006109d6565b565b60008181526001602081905260408220908101546001600160a01b03166103ab5760405162461bcd60e51b815260040161023d90610e02565b6003810154600660ff909116106103f15760405162461bcd60e51b815260206004820152600a60248201526947616d65206f7665722160b01b604482015260640161023d565b6003810154600482018054600092610459929160ff90911690811061041857610418610f11565b600091825260209091206040805160c0810191829052926006908102909201919082845b81548152602001906001019080831161043c575050505050610a26565b905080156104aa5760028201546040805186815233602082015280820192909252517f2ff8e24946f44647e89343fe32c549601a3c30f21a938a60bd421b8b57a26be49181900360600190a16104ef565b60028201546040805186815233602082015280820192909252517f5d679cc289d48b5425988e31aef3cbcde99d06349620b17d5a884eb1a7d907f99181900360600190a15b9392505050565b6104fe6109a9565b6000838152600160208190526040909120908101546001600160a01b03166105385760405162461bcd60e51b815260040161023d90610e02565b6003810154600660ff9091161061057e5760405162461bcd60e51b815260206004820152600a60248201526947616d65206f7665722160b01b604482015260640161023d565b60038101805460ff1690600061059383610f27565b825460ff9182166101009390930a928302919092021990911617905550600481018054600181018255600091825260209091206105da916006908102909101908590610a6b565b5060058101805460018101825560009182526020909120610605916006908102909101908490610a6b565b507fd0e05d721b6f1f345807bca9ee7bed9bcf003dbc048cad975f30faa54b696da484848460405161063993929190610f54565b60405180910390a150505050565b61064f6109a9565b6001600160a01b03811661067957604051631e4fbdf760e01b81526000600482015260240161023d565b610682816109d6565b50565b61068d6109a9565b6000838152600160208190526040909120908101546001600160a01b03166106c75760405162461bcd60e51b815260040161023d90610e02565b600381015460ff1660061461070f5760405162461bcd60e51b815260206004820152600e60248201526d47616d65206e6f74206f7665722160901b604482015260640161023d565b61071f6006808301908590610a6b565b50600c81018290556040517faf5f5f77e941689626533f5a8e80a5dc557e18cedaa062bcc7443b200735b4759061063990869086908690610f7e565b6107636109a9565b600083815260016020819052604090912001546001600160a01b0316156107cc5760405162461bcd60e51b815260206004820152601860248201527f53657373696f6e20616c72656164792073746172746564210000000000000000604482015260640161023d565b60408051610100810182528481526001600160a01b038416602080830191909152818301849052600060608301819052835181815291820190935260808201908361082d565b61081a610aa9565b8152602001906001900390816108125790505b508152602001600060405190808252806020026020018201604052801561086e57816020015b61085b610aa9565b8152602001906001900390816108535790505b5081526040805160c081018252600080825260208083018290528284018290526060808401839052608080850184905260a0850184905282870194909452948401829052898252600180825291849020865181558682015192810180546001600160a01b0319166001600160a01b03909416939093179092559285015160028201559284015160038401805460ff191660ff909216919091179055830151805193945084936109239260048501920190610ac7565b5060a0820151805161093f916005840191602090910190610ac7565b5060c08201516109559060068084019190610a6b565b5060e09190910151600c90910155604080518581526001600160a01b03851660208201529081018390527ff54ab3d1fa6edf998e7f57376cb4baba7da29bd227d2e2e97e56265cf6aab41690606001610639565b6000546001600160a01b031633146103705760405163118cdaa760e01b815233600482015260240161023d565b600080546001600160a01b038381166001600160a01b0319831681178455604051919092169283917f8be0079c531659141344cd1fd0a4f28419497f9722a3daafe3b4186f6b6457e09190a35050565b6000805b6006811015610a6257828160068110610a4557610a45610f11565b6020020151600214610a5a5750600092915050565b600101610a2a565b50600192915050565b8260068101928215610a99579160200282015b82811115610a99578251825591602001919060010190610a7e565b50610aa5929150610b1d565b5090565b6040518060c001604052806006906020820280368337509192915050565b828054828255906000526020600020906006028101928215610b11579160200282015b82811115610b11578251610b019083906006610a6b565b5091602001919060060190610aea565b50610aa5929150610b32565b5b80821115610aa55760008155600101610b1e565b80821115610aa5576000610b468282610b4f565b50600601610b32565b50610682906006810190610b1d565b600082601f830112610b6f57600080fd5b60405160c0810181811067ffffffffffffffff82111715610ba057634e487b7160e01b600052604160045260246000fd5b6040528060c0840185811115610bb557600080fd5b845b81811015610bcf578035835260209283019201610bb7565b509195945050505050565b60008083601f840112610bec57600080fd5b50813567ffffffffffffffff811115610c0457600080fd5b6020830191508360208260051b8501011115610c1f57600080fd5b9250929050565b600080600080600080600080610200898b031215610c4357600080fd5b88359750610c548a60208b01610b5e565b9650610c638a60e08b01610b5e565b95506101a089013567ffffffffffffffff811115610c8057600080fd5b8901601f81018b13610c9157600080fd5b803567ffffffffffffffff811115610ca857600080fd5b8b6020828401011115610cba57600080fd5b602091909101955093506101c089013567ffffffffffffffff811115610cdf57600080fd5b610ceb8b828c01610bda565b999c989b5096999598949794956101e00135949350505050565b600060208284031215610d1757600080fd5b5035919050565b60008060006101a08486031215610d3457600080fd5b83359250610d458560208601610b5e565b9150610d548560e08601610b5e565b90509250925092565b80356001600160a01b0381168114610d7457600080fd5b919050565b600060208284031215610d8b57600080fd5b6104ef82610d5d565b60008060006101008486031215610daa57600080fd5b83359250610dbb8560208601610b5e565b9295929450505060e0919091013590565b600080600060608486031215610de157600080fd5b83359250610df160208501610d5d565b929592945050506040919091013590565b60208082526014908201527353657373696f6e206e6f7420737461727465642160601b604082015260600190565b6040815283604082015283856060830137600060608583018101829052601f19601f8701168301838103820160208501529081018490526001600160fb1b03841115610e7b57600080fd5b8360051b80866080840137016080019695505050505050565b600060208284031215610ea657600080fd5b815180151581146104ef57600080fd5b8060005b6006811015610ed9578151845260209384019390910190600101610eba565b50505050565b8481526101c08101610ef46020830186610eb6565b610f0160e0830185610eb6565b826101a083015295945050505050565b634e487b7160e01b600052603260045260246000fd5b600060ff821660ff8103610f4b57634e487b7160e01b600052601160045260246000fd5b60010192915050565b8381526101a08101610f696020830185610eb6565b610f7660e0830184610eb6565b949350505050565b8381526101008101610f936020830185610eb6565b8260e083015294935050505056fea2646970667358221220c237a65001f713b638589afab5475d867586add6e6ebc14a8d80f20861498be164736f6c634300081c0033",
  "linkReferences": {},
  "deployedLinkReferences": {}
}