{
  "_format": "hh-sol-artifact-1",
  "contractName": "WordleApp",
  "sourceName": "contracts/WordleApp.sol",
  "abi": [
    {
      "inputs": [
        {
          "internalType": "address",
          "name": "_verifier",
          "type": "address"
        }
      ],
      "stateMutability": "nonpayable",
      "type": "constructor"
    },
    {
      "anonymous": false,
      "inputs": [
        {
          "indexed": false,
          "internalType": "uint256",
          "name": "sessionId",
          "type": "uint256"
        },
        {
          "indexed": false,
          "internalType": "address",
          "name": "player",
          "type": "address"
        },
        {
          "indexed": false,
          "internalType": "bytes32",
          "name": "commitment",
          "type": "bytes32"
        }
      ],
      "name": "GameLost",
      "type": "event"
    },
    {
      "anonymous": false,
      "inputs": [
        {
          "indexed": false,
          "internalType": "uint256",
          "name": "sessionId",
          "type": "uint256"
        },
        {
          "indexed": false,
          "internalType": "address",
          "name": "player",
          "type": "address"
        },
        {
          "indexed": false,
          "internalType": "bytes32",
          "name": "commitment",
          "type": "bytes32"
        }
      ],
      "name": "GameWon",
      "type": "event"
    },
    {
      "anonymous": false,
      "inputs": [
        {
          "indexed": false,
          "internalType": "uint256",
          "name": "sessionId",
          "type": "uint256"
        },
        {
          "indexed": false,
          "internalType": "uint256[6]",
          "name": "guess",
          "type": "uint256[6]"
        },
        {
          "indexed": false,
          "internalType": "uint256[6]",
          "name": "feedback",
          "type": "uint256[6]"
        }
      ],
      "name": "GuessMade",
      "type": "event"
    },
    {
      "anonymous": false,
      "inputs": [
        {
          "indexed": false,
          "internalType": "uint256",
          "name": "sessionId",
          "type": "uint256"
        },
        {
          "indexed": false,
          "internalType": "address",
          "name": "player",
          "type": "address"
        },
        {
          "indexed": false,
          "internalType": "bytes32",
          "name": "commitment",
          "type": "bytes32"
        }
      ],
      "name": "SessionStarted",
      "type": "event"
    },
    {
      "anonymous": false,
      "inputs": [
        {
          "indexed": false,
          "internalType": "uint256",
          "name": "sessionId",
          "type": "uint256"
        },
        {
          "indexed": false,
          "internalType": "uint256[6]",
          "name": "word",
          "type": "uint256[6]"
        },
        {
          "indexed": false,
          "internalType": "bytes32",
          "name": "salt",
          "type": "bytes32"
        }
      ],
      "name": "WordReveal",
      "type": "event"
    },
    {
      "inputs": [
        {
          "internalType": "uint256",
          "name": "sessionId",
          "type": "uint256"
        },
        {
          "internalType": "uint256[6]",
          "name": "word",
          "type": "uint256[6]"
        },
        {
          "internalType": "bytes32",
          "name": "salt",
          "type": "bytes32"
        }
      ],
      "name": "revealWord",
      "outputs": [],
      "stateMutability": "nonpayable",
      "type": "function"
    },
    {
      "inputs": [
        {
          "internalType": "uint256",
          "name": "",
          "type": "uint256"
        }
      ],
      "name": "sessions",
      "outputs": [
        {
          "internalType": "uint256",
          "name": "sessionId",
          "type": "uint256"
        },
        {
          "internalType": "address",
          "name": "player",
          "type": "address"
        },
        {
          "internalType": "bytes32",
          "name": "commitment",
          "type": "bytes32"
        },
        {
          "internalType": "uint8",
          "name": "attempts",
          "type": "uint8"
        },
        {
          "internalType": "bytes32",
          "name": "salt",
          "type": "bytes32"
        }
      ],
      "stateMutability": "view",
      "type": "function"
    },
    {
      "inputs": [
        {
          "internalType": "uint256",
          "name": "sessionId",
          "type": "uint256"
        },
        {
          "internalType": "address",
          "name": "player",
          "type": "address"
        },
        {
          "internalType": "bytes32",
          "name": "commitment",
          "type": "bytes32"
        }
      ],
      "name": "startSession",
      "outputs": [],
      "stateMutability": "nonpayable",
      "type": "function"
    },
    {
      "inputs": [],
      "name": "verifier",
      "outputs": [
        {
          "internalType": "contract IVerifier",
          "name": "",
          "type": "address"
        }
      ],
      "stateMutability": "view",
      "type": "function"
    },
    {
      "inputs": [
        {
          "internalType": "uint256",
          "name": "sessionId",
          "type": "uint256"
        },
        {
          "internalType": "uint256[6]",
          "name": "guess",
          "type": "uint256[6]"
        },
        {
          "internalType": "uint256[6]",
          "name": "feedback",
          "type": "uint256[6]"
        },
        {
          "internalType": "bytes",
          "name": "proof",
          "type": "bytes"
        },
        {
          "internalType": "bytes32[]",
          "name": "publicInputs",
          "type": "bytes32[]"
        },
        {
          "internalType": "bytes32",
          "name": "commitment",
          "type": "bytes32"
        }
      ],
      "name": "verifyGuess",
      "outputs": [],
      "stateMutability": "nonpayable",
      "type": "function"
    }
  ],
  "bytecode": "0x60a0604052348015600f57600080fd5b50604051610d86380380610d86833981016040819052602c91603c565b6001600160a01b0316608052606a565b600060208284031215604d57600080fd5b81516001600160a01b0381168114606357600080fd5b9392505050565b608051610cfb61008b60003960008181606101526102750152610cfb6000f3fe608060405234801561001057600080fd5b50600436106100575760003560e01c80632b7ac3f31461005c5780633b144a31146100a057806383c4b7a3146100b5578063bfb9e74414610132578063fdc5471a14610145575b600080fd5b6100837f000000000000000000000000000000000000000000000000000000000000000081565b6040516001600160a01b0390911681526020015b60405180910390f35b6100b36100ae366004610a0b565b610158565b005b6100ff6100c3366004610aea565b60006020819052908152604090208054600182015460028301546003840154600c9094015492936001600160a01b0390921692909160ff169085565b604080519586526001600160a01b0390941660208601529284019190915260ff166060830152608082015260a001610097565b6100b3610140366004610b03565b6104c0565b6100b3610153366004610b3b565b6105c1565b600088815260208190526040902060018101546001600160a01b03166101bc5760405162461bcd60e51b815260206004820152601460248201527353657373696f6e206e6f7420737461727465642160601b60448201526064015b60405180910390fd5b60018101546001600160a01b031633146102185760405162461bcd60e51b815260206004820152601f60248201527f4e6f742074686520706c61796572206f6620746869732073657373696f6e210060448201526064016101b3565b6003810154600660ff9091161061025e5760405162461bcd60e51b815260206004820152600a60248201526947616d65206f7665722160b01b60448201526064016101b3565b604051633a94343960e21b81526001600160a01b037f0000000000000000000000000000000000000000000000000000000000000000169063ea50d0e4906102b0908990899089908990600401610b7f565b602060405180830381865afa1580156102cd573d6000803e3d6000fd5b505050506040513d601f19601f820116820180604052508101906102f19190610be3565b61032e5760405162461bcd60e51b815260206004820152600e60248201526d496e76616c69642067756573732160901b60448201526064016101b3565b60058101805460018101825560009182526020909120610358916006908102909101908a9061084d565b506004810180546001810182556000918252602090912061038391600690810290910190899061084d565b507f6605d26dba445649d6f1da74d31fb28428a24e1a2cba154890e89daaa16437a48989896040516103b793929190610c35565b60405180910390a160006103ca88610808565b6003830154909150600660ff909116118015906103e45750805b1561042a57604080518b81523360208201529081018490527f2ff8e24946f44647e89343fe32c549601a3c30f21a938a60bd421b8b57a26be49060600160405180910390a15b60038201805460ff1690600061043f83610c5f565b82546101009290920a60ff8181021990931691831602179091556003840154166006149050801561046e575080155b156104b457604080518b81523360208201529081018490527f5d679cc289d48b5425988e31aef3cbcde99d06349620b17d5a884eb1a7d907f99060600160405180910390a15b50505050505050505050565b600083815260208190526040902060018101546001600160a01b031661051f5760405162461bcd60e51b815260206004820152601460248201527353657373696f6e206e6f7420737461727465642160601b60448201526064016101b3565b600381015460ff166006146105675760405162461bcd60e51b815260206004820152600e60248201526d47616d65206e6f74206f7665722160901b60448201526064016101b3565b610577600680830190859061084d565b50600c81018290556040517f39658b24ab898c71bd39ee1867d73881e5607c8bd1e56d0b2b4553c01d45a599906105b390869086908690610c8c565b60405180910390a150505050565b6000838152602081905260409020600101546001600160a01b0316156106295760405162461bcd60e51b815260206004820152601860248201527f53657373696f6e20616c7265616479207374617274656421000000000000000060448201526064016101b3565b60408051610100810182528481526001600160a01b038416602080830191909152818301849052600060608301819052835181815291820190935260808201908361068a565b61067761088b565b81526020019060019003908161066f5790505b50815260200160006040519080825280602002602001820160405280156106cb57816020015b6106b861088b565b8152602001906001900390816106b05790505b5081526040805160c081018252600080825260208083018290528284018290526060808401839052608080850184905260a08501849052828701949094529484018290528982528181529083902085518155858201516001820180546001600160a01b0319166001600160a01b039092169190911790559285015160028401559284015160038301805460ff191660ff909216919091179055830151805193945084939192610782926004850192909101906108a9565b5060a0820151805161079e9160058401916020909101906108a9565b5060c08201516107b4906006808401919061084d565b5060e09190910151600c90910155604080518581526001600160a01b03851660208201529081018390527ff54ab3d1fa6edf998e7f57376cb4baba7da29bd227d2e2e97e56265cf6aab416906060016105b3565b6000805b60068110156108445782816006811061082757610827610caf565b602002015160021461083c5750600092915050565b60010161080c565b50600192915050565b826006810192821561087b579160200282015b8281111561087b578251825591602001919060010190610860565b506108879291506108ff565b5090565b6040518060c001604052806006906020820280368337509192915050565b8280548282559060005260206000209060060281019282156108f3579160200282015b828111156108f35782516108e3908390600661084d565b50916020019190600601906108cc565b50610887929150610914565b5b808211156108875760008155600101610900565b808211156108875760006109288282610931565b50600601610914565b506109409060068101906108ff565b50565b600082601f83011261095457600080fd5b60405160c0810181811067ffffffffffffffff8211171561098557634e487b7160e01b600052604160045260246000fd5b6040528060c084018581111561099a57600080fd5b845b818110156109b457803583526020928301920161099c565b509195945050505050565b60008083601f8401126109d157600080fd5b50813567ffffffffffffffff8111156109e957600080fd5b6020830191508360208260051b8501011115610a0457600080fd5b9250929050565b600080600080600080600080610200898b031215610a2857600080fd5b88359750610a398a60208b01610943565b9650610a488a60e08b01610943565b95506101a089013567ffffffffffffffff811115610a6557600080fd5b8901601f81018b13610a7657600080fd5b803567ffffffffffffffff811115610a8d57600080fd5b8b6020828401011115610a9f57600080fd5b602091909101955093506101c089013567ffffffffffffffff811115610ac457600080fd5b610ad08b828c016109bf565b999c989b5096999598949794956101e00135949350505050565b600060208284031215610afc57600080fd5b5035919050565b60008060006101008486031215610b1957600080fd5b83359250610b2a8560208601610943565b9295929450505060e0919091013590565b600080600060608486031215610b5057600080fd5b8335925060208401356001600160a01b0381168114610b6e57600080fd5b929592945050506040919091013590565b6040815283604082015283856060830137600060608583018101829052601f19601f8701168301838103820160208501529081018490526001600160fb1b03841115610bca57600080fd5b8360051b80866080840137016080019695505050505050565b600060208284031215610bf557600080fd5b81518015158114610c0557600080fd5b9392505050565b8060005b6006811015610c2f578151845260209384019390910190600101610c10565b50505050565b8381526101a08101610c4a6020830185610c0c565b610c5760e0830184610c0c565b949350505050565b600060ff821660ff8103610c8357634e487b7160e01b600052601160045260246000fd5b60010192915050565b8381526101008101610ca16020830185610c0c565b8260e0830152949350505050565b634e487b7160e01b600052603260045260246000fdfea26469706673582212202c96c5dfb595f4cfd37e2e5190199875aad842d910ec3bbc3d80cee7965975a164736f6c634300081c0033",
  "linkReferences": {},
  "deployedLinkReferences": {}
}